{
  "contractName": "studentIsmail",
  "abi": [
    {
      "inputs": [
        {
          "internalType": "string",
          "name": "_name",
          "type": "string"
        },
        {
          "internalType": "uint256",
          "name": "_age",
          "type": "uint256"
        },
        {
          "internalType": "address",
          "name": "_accAdd",
          "type": "address"
        },
        {
          "internalType": "bool",
          "name": "_isStudent",
          "type": "bool"
        }
      ],
      "name": "setProfile",
      "outputs": [],
      "stateMutability": "nonpayable",
      "type": "function"
    },
    {
      "inputs": [],
      "name": "getProfile",
      "outputs": [
        {
          "internalType": "string",
          "name": "",
          "type": "string"
        },
        {
          "internalType": "uint256",
          "name": "",
          "type": "uint256"
        },
        {
          "internalType": "address",
          "name": "",
          "type": "address"
        },
        {
          "internalType": "bool",
          "name": "",
          "type": "bool"
        }
      ],
      "stateMutability": "view",
      "type": "function"
    }
  ],
  "bytecode": "0x608060405234801561000f575f80fd5b506107a58061001d5f395ff3fe608060405234801561000f575f80fd5b5060043610610034575f3560e01c8063b970752b14610038578063d6afc9b114610054575b5f80fd5b610052600480360381019061004d91906102ec565b610075565b005b61005c6100ee565b60405161006c9493929190610427565b60405180910390f35b84845f91826100859291906106a2565b50826001819055508160025f6101000a81548173ffffffffffffffffffffffffffffffffffffffff021916908373ffffffffffffffffffffffffffffffffffffffff16021790555080600260146101000a81548160ff0219169083151502179055505050505050565b60605f805f8060015460025f9054906101000a900473ffffffffffffffffffffffffffffffffffffffff16600260149054906101000a900460ff16838054610135906104d5565b80601f0160208091040260200160405190810160405280929190818152602001828054610161906104d5565b80156101ac5780601f10610183576101008083540402835291602001916101ac565b820191905f5260205f20905b81548152906001019060200180831161018f57829003601f168201915b50505050509350935093509350935090919293565b5f80fd5b5f80fd5b5f80fd5b5f80fd5b5f80fd5b5f8083601f8401126101ea576101e96101c9565b5b8235905067ffffffffffffffff811115610207576102066101cd565b5b602083019150836001820283011115610223576102226101d1565b5b9250929050565b5f819050919050565b61023c8161022a565b8114610246575f80fd5b50565b5f8135905061025781610233565b92915050565b5f73ffffffffffffffffffffffffffffffffffffffff82169050919050565b5f6102868261025d565b9050919050565b6102968161027c565b81146102a0575f80fd5b50565b5f813590506102b18161028d565b92915050565b5f8115159050919050565b6102cb816102b7565b81146102d5575f80fd5b50565b5f813590506102e6816102c2565b92915050565b5f805f805f60808688031215610305576103046101c1565b5b5f86013567ffffffffffffffff811115610322576103216101c5565b5b61032e888289016101d5565b9550955050602061034188828901610249565b9350506040610352888289016102a3565b9250506060610363888289016102d8565b9150509295509295909350565b5f81519050919050565b5f82825260208201905092915050565b5f5b838110156103a757808201518184015260208101905061038c565b5f8484015250505050565b5f601f19601f8301169050919050565b5f6103cc82610370565b6103d6818561037a565b93506103e681856020860161038a565b6103ef816103b2565b840191505092915050565b6104038161022a565b82525050565b6104128161027c565b82525050565b610421816102b7565b82525050565b5f6080820190508181035f83015261043f81876103c2565b905061044e60208301866103fa565b61045b6040830185610409565b6104686060830184610418565b95945050505050565b5f82905092915050565b7f4e487b71000000000000000000000000000000000000000000000000000000005f52604160045260245ffd5b7f4e487b71000000000000000000000000000000000000000000000000000000005f52602260045260245ffd5b5f60028204905060018216806104ec57607f821691505b6020821081036104ff576104fe6104a8565b5b50919050565b5f819050815f5260205f209050919050565b5f6020601f8301049050919050565b5f82821b905092915050565b5f600883026105617fffffffffffffffffffffffffffffffffffffffffffffffffffffffffffffffff82610526565b61056b8683610526565b95508019841693508086168417925050509392505050565b5f819050919050565b5f6105a66105a161059c8461022a565b610583565b61022a565b9050919050565b5f819050919050565b6105bf8361058c565b6105d36105cb826105ad565b848454610532565b825550505050565b5f90565b6105e76105db565b6105f28184846105b6565b505050565b5b818110156106155761060a5f826105df565b6001810190506105f8565b5050565b601f82111561065a5761062b81610505565b61063484610517565b81016020851015610643578190505b61065761064f85610517565b8301826105f7565b50505b505050565b5f82821c905092915050565b5f61067a5f198460080261065f565b1980831691505092915050565b5f610692838361066b565b9150826002028217905092915050565b6106ac8383610471565b67ffffffffffffffff8111156106c5576106c461047b565b5b6106cf82546104d5565b6106da828285610619565b5f601f831160018114610707575f84156106f5578287013590505b6106ff8582610687565b865550610766565b601f19841661071586610505565b5f5b8281101561073c57848901358255600182019150602085019450602081019050610717565b868310156107595784890135610755601f89168261066b565b8355505b6001600288020188555050505b5050505050505056fea2646970667358221220eb6695fca6e39dfb5aac7f273bacef54e2e6aa3fdc84017b6b93c81502b8cb1c64736f6c63430008150033",
  "immutableReferences": {},
  "source": "// SPDX-License-Identifier: MIT\r\npragma solidity >0.7.0 <=0.8.21;\r\n\r\ncontract studentIsmail{\r\n    string name;\r\n    uint age;\r\n    address accAdd;\r\n    bool isStudent;\r\n\r\n    function setProfile(string calldata _name, uint _age, address _accAdd, bool _isStudent) public {\r\n        name = _name;\r\n        age = _age;\r\n        accAdd = _accAdd;\r\n        isStudent = _isStudent;\r\n    }\r\n\r\n    function getProfile() public view returns(string memory, uint, address, bool){\r\n        return (name, age, accAdd, isStudent);\r\n    }\r\n}",
  "sourcePath": "C:\\Users\\msaim\\OneDrive\\Desktop\\Ismail\\Solidity-AlNafi\\contracts\\hello.sol",
  "compiler": {
    "name": "solc",
    "version": "0.8.21+commit.d9974bed.Emscripten.clang"
  },
  "schemaVersion": "3.4.16",
  "updatedAt": "2024-05-10T16:48:26.986Z",
  "devdoc": {
    "kind": "dev",
    "methods": {},
    "version": 1
  },
  "userdoc": {
    "kind": "user",
    "methods": {},
    "version": 1
  }
}